{
  "contractName": "NoDeliveryOrder",
  "abi": [
    {
      "inputs": [],
      "payable": false,
      "stateMutability": "nonpayable",
      "type": "constructor"
    },
    {
      "anonymous": false,
      "inputs": [
        {
          "indexed": true,
          "name": "_orderToken",
          "type": "string"
        },
        {
          "indexed": true,
          "name": "_state",
          "type": "string"
        }
      ],
      "name": "OrderState",
      "type": "event"
    },
    {
      "constant": false,
      "inputs": [
        {
          "name": "_orderToken",
          "type": "string"
        },
        {
          "name": "_state",
          "type": "string"
        }
      ],
      "name": "createOrder",
      "outputs": [],
      "payable": true,
      "stateMutability": "payable",
      "type": "function"
    },
    {
      "constant": true,
      "inputs": [
        {
          "name": "_orderToken",
          "type": "string"
        }
      ],
      "name": "getOrderInConflict",
      "outputs": [
        {
          "name": "",
          "type": "string"
        }
      ],
      "payable": false,
      "stateMutability": "view",
      "type": "function"
    },
    {
      "constant": false,
      "inputs": [
        {
          "name": "_orderToken",
          "type": "string"
        },
        {
          "name": "_state",
          "type": "string"
        }
      ],
      "name": "updateOrderState",
      "outputs": [],
      "payable": false,
      "stateMutability": "nonpayable",
      "type": "function"
    },
    {
      "constant": false,
      "inputs": [
        {
          "name": "_orderToken",
          "type": "string"
        },
        {
          "name": "_isRecivedByConsumer",
          "type": "bool"
        }
      ],
      "name": "updateIsRecivedByConsumer",
      "outputs": [],
      "payable": false,
      "stateMutability": "nonpayable",
      "type": "function"
    },
    {
      "constant": false,
      "inputs": [
        {
          "name": "_orderToken",
          "type": "string"
        },
        {
          "name": "_isDeliveryBySupplier",
          "type": "bool"
        }
      ],
      "name": "updateIsDeliveryBySupplier",
      "outputs": [],
      "payable": false,
      "stateMutability": "nonpayable",
      "type": "function"
    },
    {
      "constant": false,
      "inputs": [
        {
          "name": "_orderToken",
          "type": "string"
        }
      ],
      "name": "closeOrderConflict",
      "outputs": [],
      "payable": true,
      "stateMutability": "payable",
      "type": "function"
    }
  ],
  "bytecode": "0x608060405234801561001057600080fd5b50336000806101000a81548173ffffffffffffffffffffffffffffffffffffffff021916908373ffffffffffffffffffffffffffffffffffffffff1602179055506117fa806100606000396000f3fe608060405260043610610072576000357c0100000000000000000000000000000000000000000000000000000000900480634efa46b914610077578063591fc296146101b85780637b44e1171461030a5780637c5dd2071461039c578063acf4656214610477578063fad6ed5714610509575b600080fd5b34801561008357600080fd5b5061013d6004803603602081101561009a57600080fd5b81019080803590602001906401000000008111156100b757600080fd5b8201836020820111156100c957600080fd5b803590602001918460018302840111640100000000831117156100eb57600080fd5b91908080601f016020809104026020016040519081016040528093929190818152602001838380828437600081840152601f19601f8201169050808301925050505050505091929192905050506105c4565b6040518080602001828103825283818151815260200191508051906020019080838360005b8381101561017d578082015181840152602081019050610162565b50505050905090810190601f1680156101aa5780820380516001836020036101000a031916815260200191505b509250505060405180910390f35b610308600480360360408110156101ce57600080fd5b81019080803590602001906401000000008111156101eb57600080fd5b8201836020820111156101fd57600080fd5b8035906020019184600183028401116401000000008311171561021f57600080fd5b91908080601f016020809104026020016040519081016040528093929190818152602001838380828437600081840152601f19601f8201169050808301925050505050505091929192908035906020019064010000000081111561028257600080fd5b82018360208201111561029457600080fd5b803590602001918460018302840111640100000000831117156102b657600080fd5b91908080601f016020809104026020016040519081016040528093929190818152602001838380828437600081840152601f19601f820116905080830192505050505050509192919290505050610747565b005b34801561031657600080fd5b5061039a6004803603604081101561032d57600080fd5b810190808035906020019064010000000081111561034a57600080fd5b82018360208201111561035c57600080fd5b8035906020019184600183028401116401000000008311171561037e57600080fd5b90919293919293908035151590602001909291905050506108bc565b005b3480156103a857600080fd5b50610475600480360360408110156103bf57600080fd5b81019080803590602001906401000000008111156103dc57600080fd5b8201836020820111156103ee57600080fd5b8035906020019184600183028401116401000000008311171561041057600080fd5b90919293919293908035906020019064010000000081111561043157600080fd5b82018360208201111561044357600080fd5b8035906020019184600183028401116401000000008311171561046557600080fd5b9091929391929390505050610c59565b005b34801561048357600080fd5b506105076004803603604081101561049a57600080fd5b81019080803590602001906401000000008111156104b757600080fd5b8201836020820111156104c957600080fd5b803590602001918460018302840111640100000000831117156104eb57600080fd5b909192939192939080351515906020019092919050505061109e565b005b6105c26004803603602081101561051f57600080fd5b810190808035906020019064010000000081111561053c57600080fd5b82018360208201111561054e57600080fd5b8035906020019184600183028401116401000000008311171561057057600080fd5b91908080601f016020809104026020016040519081016040528093929190818152602001838380828437600081840152601f19601f82011690508083019250505050505050919291929050505061143b565b005b60606105ce6116fa565b6001836040518082805190602001908083835b60208310151561060657805182526020820191506020810190506020830392506105e1565b6001836020036101000a038019825116818451168082178552505050505050905001915050908152602001604051809103902060806040519081016040529081600082018054600181600116156101000203166002900480601f0160208091040260200160405190810160405280929190818152602001828054600181600116156101000203166002900480156106de5780601f106106b3576101008083540402835291602001916106de565b820191906000526020600020905b8154815290600101906020018083116106c157829003601f168201915b505050505081526020016001820160009054906101000a900460ff161515151581526020016001820160019054906101000a900460ff161515151581526020016001820160029054906101000a900460ff16151515158152505090508060000151915050919050565b6000809054906101000a900473ffffffffffffffffffffffffffffffffffffffff1673ffffffffffffffffffffffffffffffffffffffff163373ffffffffffffffffffffffffffffffffffffffff161415156107a257600080fd5b608060405190810160405280828152602001600115158152602001600015158152602001600015158152506001836040518082805190602001908083835b60208310151561080557805182526020820191506020810190506020830392506107e0565b6001836020036101000a03801982511681845116808217855250505050505090500191505090815260200160405180910390206000820151816000019080519060200190610854929190611729565b5060208201518160010160006101000a81548160ff02191690831515021790555060408201518160010160016101000a81548160ff02191690831515021790555060608201518160010160026101000a81548160ff0219169083151502179055509050505050565b82828080601f016020809104026020016040519081016040528093929190818152602001838380828437600081840152601f19601f8201169050808301925050505050505060006001826040518082805190602001908083835b60208310151561093b5780518252602082019150602081019050602083039250610916565b6001836020036101000a038019825116818451168082178552505050505050905001915050908152602001604051809103902090506020604051908101604052806000815250805190602001208160000160405180828054600181600116156101000203166002900480156109e75780601f106109c55761010080835404028352918201916109e7565b820191906000526020600020905b8154815290600101906020018083116109d3575b50509150506040518091039020141515610a69576040517f08c379a00000000000000000000000000000000000000000000000000000000081526004018080602001828103825260148152602001807f4f7264657220646f6573206e6f7420657869737400000000000000000000000081525060200191505060405180910390fd5b610a716116fa565b60018686604051808383808284378083019250505092505050908152602001604051809103902060806040519081016040529081600082018054600181600116156101000203166002900480601f016020809104026020016040519081016040528092919081815260200182805460018160011615610100020316600290048015610b3d5780601f10610b1257610100808354040283529160200191610b3d565b820191906000526020600020905b815481529060010190602001808311610b2057829003601f168201915b505050505081526020016001820160009054906101000a900460ff161515151581526020016001820160019054906101000a900460ff161515151581526020016001820160029054906101000a900460ff161515151581525050905083816040019015159081151581525050806001878760405180838380828437808301925050509250505090815260200160405180910390206000820151816000019080519060200190610bed929190611729565b5060208201518160010160006101000a81548160ff02191690831515021790555060408201518160010160016101000a81548160ff02191690831515021790555060608201518160010160026101000a81548160ff021916908315150217905550905050505050505050565b83838080601f016020809104026020016040519081016040528093929190818152602001838380828437600081840152601f19601f8201169050808301925050505050505060006001826040518082805190602001908083835b602083101515610cd85780518252602082019150602081019050602083039250610cb3565b6001836020036101000a03801982511681845116808217855250505050505090500191505090815260200160405180910390209050602060405190810160405280600081525080519060200120816000016040518082805460018160011615610100020316600290048015610d845780601f10610d62576101008083540402835291820191610d84565b820191906000526020600020905b815481529060010190602001808311610d70575b50509150506040518091039020141515610e06576040517f08c379a00000000000000000000000000000000000000000000000000000000081526004018080602001828103825260148152602001807f4f7264657220646f6573206e6f7420657869737400000000000000000000000081525060200191505060405180910390fd5b610e0e6116fa565b60018787604051808383808284378083019250505092505050908152602001604051809103902060806040519081016040529081600082018054600181600116156101000203166002900480601f016020809104026020016040519081016040528092919081815260200182805460018160011615610100020316600290048015610eda5780601f10610eaf57610100808354040283529160200191610eda565b820191906000526020600020905b815481529060010190602001808311610ebd57829003601f168201915b505050505081526020016001820160009054906101000a900460ff161515151581526020016001820160019054906101000a900460ff161515151581526020016001820160029054906101000a900460ff161515151581525050905084848080601f016020809104026020016040519081016040528093929190818152602001838380828437600081840152601f19601f820116905080830192505050505050508160000181905250806001888860405180838380828437808301925050509250505090815260200160405180910390206000820151816000019080519060200190610fc7929190611729565b5060208201518160010160006101000a81548160ff02191690831515021790555060408201518160010160016101000a81548160ff02191690831515021790555060608201518160010160026101000a81548160ff02191690831515021790555090505084846040518083838082843780830192505050925050506040518091039020878760405180838380828437808301925050509250505060405180910390207fcdce812032e346a15cb01521c9f7b127759cb30b365c3a7a70a093d65be0afae60405160405180910390a350505050505050565b82828080601f016020809104026020016040519081016040528093929190818152602001838380828437600081840152601f19601f8201169050808301925050505050505060006001826040518082805190602001908083835b60208310151561111d57805182526020820191506020810190506020830392506110f8565b6001836020036101000a038019825116818451168082178552505050505050905001915050908152602001604051809103902090506020604051908101604052806000815250805190602001208160000160405180828054600181600116156101000203166002900480156111c95780601f106111a75761010080835404028352918201916111c9565b820191906000526020600020905b8154815290600101906020018083116111b5575b5050915050604051809103902014151561124b576040517f08c379a00000000000000000000000000000000000000000000000000000000081526004018080602001828103825260148152602001807f4f7264657220646f6573206e6f7420657869737400000000000000000000000081525060200191505060405180910390fd5b6112536116fa565b60018686604051808383808284378083019250505092505050908152602001604051809103902060806040519081016040529081600082018054600181600116156101000203166002900480601f01602080910402602001604051908101604052809291908181526020018280546001816001161561010002031660029004801561131f5780601f106112f45761010080835404028352916020019161131f565b820191906000526020600020905b81548152906001019060200180831161130257829003601f168201915b505050505081526020016001820160009054906101000a900460ff161515151581526020016001820160019054906101000a900460ff161515151581526020016001820160029054906101000a900460ff1615151515815250509050838160600190151590811515815250508060018787604051808383808284378083019250505092505050908152602001604051809103902060008201518160000190805190602001906113cf929190611729565b5060208201518160010160006101000a81548160ff02191690831515021790555060408201518160010160016101000a81548160ff02191690831515021790555060608201518160010160026101000a81548160ff021916908315150217905550905050505050505050565b6000809054906101000a900473ffffffffffffffffffffffffffffffffffffffff1673ffffffffffffffffffffffffffffffffffffffff163373ffffffffffffffffffffffffffffffffffffffff1614151561149657600080fd5b61149e6116fa565b6001826040518082805190602001908083835b6020831015156114d657805182526020820191506020810190506020830392506114b1565b6001836020036101000a038019825116818451168082178552505050505050905001915050908152602001604051809103902060806040519081016040529081600082018054600181600116156101000203166002900480601f0160208091040260200160405190810160405280929190818152602001828054600181600116156101000203166002900480156115ae5780601f10611583576101008083540402835291602001916115ae565b820191906000526020600020905b81548152906001019060200180831161159157829003601f168201915b505050505081526020016001820160009054906101000a900460ff161515151581526020016001820160019054906101000a900460ff161515151581526020016001820160029054906101000a900460ff1615151515815250509050806001836040518082805190602001908083835b602083101515611643578051825260208201915060208101905060208303925061161e565b6001836020036101000a03801982511681845116808217855250505050505090500191505090815260200160405180910390206000820151816000019080519060200190611692929190611729565b5060208201518160010160006101000a81548160ff02191690831515021790555060408201518160010160016101000a81548160ff02191690831515021790555060608201518160010160026101000a81548160ff0219169083151502179055509050505050565b608060405190810160405280606081526020016000151581526020016000151581526020016000151581525090565b828054600181600116156101000203166002900490600052602060002090601f016020900481019282601f1061176a57805160ff1916838001178555611798565b82800160010185558215611798579182015b8281111561179757825182559160200191906001019061177c565b5b5090506117a591906117a9565b5090565b6117cb91905b808211156117c75760008160009055506001016117af565b5090565b9056fea165627a7a72305820c6dfd3cfcc617b9041d9ee13d079903377e4dad3fcd89911b6e1d619ec63bab80029",
  "source": "// SPDX-License-Identifier: MIT\r\npragma solidity >=0.4.22 <0.9.0;\r\n\r\ncontract NoDeliveryOrder {\r\n\r\n    // this is the owner of the contract\r\n    address private owner;\r\n    \r\n    // struct to define a order to be processed and have issues\r\n    struct OrderInConflict {\r\n        string state;\r\n        bool isDelivery;\r\n        bool isRecivedByConsumer;\r\n        bool isDeliveryBySupplier;\r\n    }\r\n\r\n    // mapping of orderId to order\r\n    mapping(string => OrderInConflict) private orders;\r\n\r\n    // count orders\r\n    uint private orderCount;\r\n\r\n    // modify only owner\r\n    modifier onlyOwner() {\r\n        require(msg.sender == owner);\r\n        _;\r\n    }\r\n\r\n    // modifier that verifies if the order exist on the list\r\n    modifier orderExist(string memory _orderToken) {\r\n        // get order \r\n        OrderInConflict storage order = orders[_orderToken];\r\n        // if order exist\r\n        require(keccak256(bytes(order.state)) == keccak256(bytes(\"\")), \"Order does not exist\");\r\n        _;\r\n    }\r\n\r\n    // create event to emit current state of order\r\n    event OrderState(string indexed _orderToken, string indexed _state);\r\n    \r\n    // constructor of the contract\r\n    constructor() public {\r\n        owner = msg.sender;\r\n    }\r\n\r\n    // create a new order\r\n    function createOrder(string memory _orderToken, string memory _state) public payable onlyOwner {\r\n        orders[_orderToken] = OrderInConflict(_state, true, false, false);\r\n    }\r\n\r\n    // get order in conflict \r\n    function getOrderInConflict(string memory _orderToken) public view returns (string memory) {\r\n        // get order\r\n        OrderInConflict memory order = orders[_orderToken];\r\n        // return timestamp and state\r\n        return order.state;\r\n    }\r\n\r\n    // function to update the state of the order\r\n    function updateOrderState(string calldata _orderToken, string calldata _state) external orderExist(_orderToken) {\r\n        // get order\r\n        OrderInConflict memory order = orders[_orderToken];\r\n        // update state\r\n        order.state = _state;\r\n        // update order\r\n        orders[_orderToken] = order;\r\n        // emit event\r\n        emit OrderState(_orderToken, _state);\r\n    }\r\n\r\n    // function tu update isRecivedByConsumer\r\n    function updateIsRecivedByConsumer(string calldata _orderToken, bool _isRecivedByConsumer) external orderExist(_orderToken) {\r\n        // get order\r\n        OrderInConflict memory order = orders[_orderToken];\r\n        // update isRecivedByConsumer\r\n        order.isRecivedByConsumer = _isRecivedByConsumer;\r\n        // update order\r\n        orders[_orderToken] = order;\r\n    }\r\n\r\n    // function to update isDeliveryBySupplier\r\n    function updateIsDeliveryBySupplier(string calldata _orderToken, bool _isDeliveryBySupplier) external orderExist(_orderToken) {\r\n        // get order\r\n        OrderInConflict memory order = orders[_orderToken];\r\n        // update isDeliveryBySupplier\r\n        order.isDeliveryBySupplier = _isDeliveryBySupplier;\r\n        // update order\r\n        orders[_orderToken] = order;\r\n    }\r\n\r\n    // function to close order conflict \r\n    // then the order is closed\r\n    function closeOrderConflict(string memory _orderToken) public payable onlyOwner {\r\n        // get order\r\n        OrderInConflict memory order = orders[_orderToken];\r\n        // if the order isDelivery and isRecivedByConsumer is false and isDeliveryBySupplier is true\r\n        // update order\r\n        orders[_orderToken] = order;\r\n    }\r\n\r\n}",
  "sourcePath": "D:\\project\\tesis\\contracts\\NoDeliveryOrder.sol",
  "compiler": {
    "name": "solc",
    "version": "0.5.1+commit.c8a2cb62.Emscripten.clang"
  },
  "schemaVersion": "3.4.3",
  "updatedAt": "2021-09-05T21:16:05.060Z",
  "networkType": "ethereum",
  "devdoc": {
    "methods": {}
  },
  "userdoc": {
    "methods": {}
  }
}