{
  "contractName": "OrderDelayed",
  "abi": [
    {
      "constant": true,
      "inputs": [],
      "name": "numberAsteroids",
      "outputs": [
        {
          "name": "",
          "type": "uint256"
        }
      ],
      "payable": false,
      "stateMutability": "view",
      "type": "function"
    },
    {
      "inputs": [],
      "payable": false,
      "stateMutability": "nonpayable",
      "type": "constructor"
    },
    {
      "anonymous": false,
      "inputs": [],
      "name": "__callBackNewData",
      "type": "event"
    },
    {
      "constant": false,
      "inputs": [],
      "name": "updateData",
      "outputs": [],
      "payable": false,
      "stateMutability": "nonpayable",
      "type": "function"
    },
    {
      "constant": false,
      "inputs": [
        {
          "name": "_numberAsteroids",
          "type": "uint256"
        }
      ],
      "name": "setData",
      "outputs": [],
      "payable": false,
      "stateMutability": "nonpayable",
      "type": "function"
    }
  ],
  "bytecode": "0x608060405234801561001057600080fd5b50336000806101000a81548173ffffffffffffffffffffffffffffffffffffffff021916908373ffffffffffffffffffffffffffffffffffffffff1602179055506102c5806100606000396000f3fe608060405260043610610051576000357c0100000000000000000000000000000000000000000000000000000000900480635b4b73a914610056578063829400cb146100915780638e00a2bb146100bc575b600080fd5b34801561006257600080fd5b5061008f6004803603602081101561007957600080fd5b81019080803590602001909291905050506100d3565b005b34801561009d57600080fd5b506100a66101a1565b6040518082815260200191505060405180910390f35b3480156100c857600080fd5b506100d16101a7565b005b6000809054906101000a900473ffffffffffffffffffffffffffffffffffffffff1673ffffffffffffffffffffffffffffffffffffffff163373ffffffffffffffffffffffffffffffffffffffff16141515610197576040517f08c379a000000000000000000000000000000000000000000000000000000000815260040180806020018281038252601a8152602001807f4f6e6c7920746865206f776e65722063616e20646f207468697300000000000081525060200191505060405180910390fd5b8060018190555050565b60015481565b6000809054906101000a900473ffffffffffffffffffffffffffffffffffffffff1673ffffffffffffffffffffffffffffffffffffffff163373ffffffffffffffffffffffffffffffffffffffff1614151561026b576040517f08c379a000000000000000000000000000000000000000000000000000000000815260040180806020018281038252601a8152602001807f4f6e6c7920746865206f776e65722063616e20646f207468697300000000000081525060200191505060405180910390fd5b7fa0ab7a6cf50bb5ce6f63b52992f002a8b69532bdb969f31199269f20cdd6307c60405160405180910390a156fea165627a7a7230582075767f4ab03247799f00ed8516e18c238b7f6e8429300a09a5dbf13dd23ecf070029",
  "source": "// SPDX-License-Identifier: MIT\r\npragma solidity >=0.4.22 <0.9.0;\r\n\r\ncontract OrderDelayed {\r\n\r\n    address owner;\r\n    uint public numberAsteroids;\r\n\r\n    event __callBackNewData();\r\n\r\n    // struct to define the current state of a order\r\n    struct StateOrder {\r\n        uint256 times;\r\n        string status;\r\n    }\r\n    \r\n    // struct to define a order to be processed\r\n    struct Order {\r\n        uint orderToken;\r\n        StateOrder state;\r\n    }\r\n\r\n    modifier onlyOwner() {\r\n        require(msg.sender == owner, \"Only the owner can do this\");\r\n        _;\r\n    }\r\n\r\n    constructor() public {\r\n        owner = msg.sender;\r\n    }\r\n\r\n    // function to emit the event on externarl application\r\n    function updateData() public onlyOwner {\r\n        emit __callBackNewData();\r\n    }\r\n\r\n    // function to set the informetion about the current state\r\n    function setData(uint _numberAsteroids) public onlyOwner {\r\n        numberAsteroids = _numberAsteroids;\r\n    }\r\n\r\n}\r\n\r\n",
  "sourcePath": "D:\\project\\tesis\\contracts\\OrderDelayed.sol",
  "compiler": {
    "name": "solc",
    "version": "0.5.1+commit.c8a2cb62.Emscripten.clang"
  },
  "schemaVersion": "3.4.3",
  "updatedAt": "2021-09-05T21:16:06.222Z",
  "networkType": "ethereum",
  "devdoc": {
    "methods": {}
  },
  "userdoc": {
    "methods": {}
  }
}